{
  "_format": "hh-sol-artifact-1",
  "contractName": "UniPortal",
  "sourceName": "contracts/UniPortal.sol",
  "abi": [
    {
      "inputs": [],
      "stateMutability": "payable",
      "type": "constructor"
    },
    {
      "anonymous": false,
      "inputs": [
        {
          "indexed": true,
          "internalType": "address",
          "name": "from",
          "type": "address"
        },
        {
          "indexed": false,
          "internalType": "uint256",
          "name": "timestamp",
          "type": "uint256"
        },
        {
          "indexed": false,
          "internalType": "string",
          "name": "message",
          "type": "string"
        }
      ],
      "name": "NewUni",
      "type": "event"
    },
    {
      "inputs": [],
      "name": "getAllUnis",
      "outputs": [
        {
          "components": [
            {
              "internalType": "address",
              "name": "sender",
              "type": "address"
            },
            {
              "internalType": "string",
              "name": "message",
              "type": "string"
            },
            {
              "internalType": "uint256",
              "name": "timestamp",
              "type": "uint256"
            }
          ],
          "internalType": "struct UniPortal.Uni[]",
          "name": "",
          "type": "tuple[]"
        }
      ],
      "stateMutability": "view",
      "type": "function"
    },
    {
      "inputs": [],
      "name": "getTotalUnis",
      "outputs": [
        {
          "internalType": "uint256",
          "name": "",
          "type": "uint256"
        }
      ],
      "stateMutability": "view",
      "type": "function"
    },
    {
      "inputs": [
        {
          "internalType": "string",
          "name": "_message",
          "type": "string"
        }
      ],
      "name": "sendUni",
      "outputs": [],
      "stateMutability": "nonpayable",
      "type": "function"
    }
  ],
  "bytecode": "0x6080604052620000336040518060800160405280604581526020016200104d604591396200003960201b620004911760201c565b620001cd565b620000d98160405160240162000050919062000146565b6040516020818303038152906040527f41304fac000000000000000000000000000000000000000000000000000000007bffffffffffffffffffffffffffffffffffffffffffffffffffffffff19166020820180517bffffffffffffffffffffffffffffffffffffffffffffffffffffffff8381831617835250505050620000dc60201b60201c565b50565b60008151905060006a636f6e736f6c652e6c6f679050602083016000808483855afa5050505050565b600062000112826200016a565b6200011e818562000175565b93506200013081856020860162000186565b6200013b81620001bc565b840191505092915050565b6000602082019050818103600083015262000162818462000105565b905092915050565b600081519050919050565b600082825260208201905092915050565b60005b83811015620001a657808201518184015260208101905062000189565b83811115620001b6576000848401525b50505050565b6000601f19601f8301169050919050565b610e7080620001dd6000396000f3fe608060405234801561001057600080fd5b50600436106100415760003560e01c80635b9b56d014610046578063cd88e85d14610064578063dacab5f114610080575b600080fd5b61004e61009e565b60405161005b9190610a5c565b60405180910390f35b61007e60048036038101906100799190610799565b6101ef565b005b610088610463565b6040516100959190610b55565b60405180910390f35b60606001805480602002602001604051908101604052809291908181526020016000905b828210156101e657838290600052602060002090600302016040518060600160405290816000820160009054906101000a900473ffffffffffffffffffffffffffffffffffffffff1673ffffffffffffffffffffffffffffffffffffffff1673ffffffffffffffffffffffffffffffffffffffff16815260200160018201805461014b90610d46565b80601f016020809104026020016040519081016040528092919081815260200182805461017790610d46565b80156101c45780601f10610199576101008083540402835291602001916101c4565b820191906000526020600020905b8154815290600101906020018083116101a757829003601f168201915b50505050508152602001600282015481525050815260200190600101906100c2565b50505050905090565b60016000808282546102019190610c72565b925050819055506102486040518060400160405280601281526020017f2573206861732073656e74206120756e69210000000000000000000000000000815250338361052a565b600160405180606001604052803373ffffffffffffffffffffffffffffffffffffffff16815260200183815260200142815250908060018154018082558091505060019003906000526020600020906003020160009091909190915060008201518160000160006101000a81548173ffffffffffffffffffffffffffffffffffffffff021916908373ffffffffffffffffffffffffffffffffffffffff160217905550602082015181600101908051906020019061030792919061068e565b506040820151816002015550503373ffffffffffffffffffffffffffffffffffffffff167f8183afd047897dee7ea7f7080ca26f2780632b60ec43f5623c75b36bc8d69e2c428360405161035c929190610b70565b60405180910390a26000655af3107a40009050478111156103b2576040517f08c379a00000000000000000000000000000000000000000000000000000000081526004016103a990610b35565b60405180910390fd5b60003373ffffffffffffffffffffffffffffffffffffffff16826040516103d890610a47565b60006040518083038185875af1925050503d8060008114610415576040519150601f19603f3d011682016040523d82523d6000602084013e61041a565b606091505b505090508061045e576040517f08c379a000000000000000000000000000000000000000000000000000000000815260040161045590610b15565b60405180910390fd5b505050565b6000610489604051806060016040528060248152602001610e17602491396000546105c9565b600054905090565b610527816040516024016104a59190610a7e565b6040516020818303038152906040527f41304fac000000000000000000000000000000000000000000000000000000007bffffffffffffffffffffffffffffffffffffffffffffffffffffffff19166020820180517bffffffffffffffffffffffffffffffffffffffffffffffffffffffff8381831617835250505050610665565b50565b6105c483838360405160240161054293929190610aa0565b6040516020818303038152906040527fe0e9ad4f000000000000000000000000000000000000000000000000000000007bffffffffffffffffffffffffffffffffffffffffffffffffffffffff19166020820180517bffffffffffffffffffffffffffffffffffffffffffffffffffffffff8381831617835250505050610665565b505050565b61066182826040516024016105df929190610ae5565b6040516020818303038152906040527f9710a9d0000000000000000000000000000000000000000000000000000000007bffffffffffffffffffffffffffffffffffffffffffffffffffffffff19166020820180517bffffffffffffffffffffffffffffffffffffffffffffffffffffffff8381831617835250505050610665565b5050565b60008151905060006a636f6e736f6c652e6c6f679050602083016000808483855afa5050505050565b82805461069a90610d46565b90600052602060002090601f0160209004810192826106bc5760008555610703565b82601f106106d557805160ff1916838001178555610703565b82800160010185558215610703579182015b828111156107025782518255916020019190600101906106e7565b5b5090506107109190610714565b5090565b5b8082111561072d576000816000905550600101610715565b5090565b600061074461073f84610bd1565b610ba0565b90508281526020810184848401111561075c57600080fd5b610767848285610d04565b509392505050565b600082601f83011261078057600080fd5b8135610790848260208601610731565b91505092915050565b6000602082840312156107ab57600080fd5b600082013567ffffffffffffffff8111156107c557600080fd5b6107d18482850161076f565b91505092915050565b60006107e683836109d9565b905092915050565b6107f781610cc8565b82525050565b61080681610cc8565b82525050565b600061081782610c11565b6108218185610c34565b93508360208202850161083385610c01565b8060005b8581101561086f578484038952815161085085826107da565b945061085b83610c27565b925060208a01995050600181019050610837565b50829750879550505050505092915050565b600061088c82610c1c565b6108968185610c50565b93506108a6818560208601610d13565b6108af81610e05565b840191505092915050565b60006108c582610c1c565b6108cf8185610c61565b93506108df818560208601610d13565b6108e881610e05565b840191505092915050565b6000610900602683610c61565b91507f4661696c656420746f207769746864726177206d6f6e65792066726f6d20636f60008301527f6e747261637400000000000000000000000000000000000000000000000000006020830152604082019050919050565b6000610966600083610c45565b9150600082019050919050565b6000610980603383610c61565b91507f547279696e6720746f207769746864726177206d6f7265206d6f6e657920746860008301527f616e2074686520636f6e747261637420686173000000000000000000000000006020830152604082019050919050565b60006060830160008301516109f160008601826107ee565b5060208301518482036020860152610a098282610881565b9150506040830151610a1e6040860182610a29565b508091505092915050565b610a3281610cfa565b82525050565b610a4181610cfa565b82525050565b6000610a5282610959565b9150819050919050565b60006020820190508181036000830152610a76818461080c565b905092915050565b60006020820190508181036000830152610a9881846108ba565b905092915050565b60006060820190508181036000830152610aba81866108ba565b9050610ac960208301856107fd565b8181036040830152610adb81846108ba565b9050949350505050565b60006040820190508181036000830152610aff81856108ba565b9050610b0e6020830184610a38565b9392505050565b60006020820190508181036000830152610b2e816108f3565b9050919050565b60006020820190508181036000830152610b4e81610973565b9050919050565b6000602082019050610b6a6000830184610a38565b92915050565b6000604082019050610b856000830185610a38565b8181036020830152610b9781846108ba565b90509392505050565b6000604051905081810181811067ffffffffffffffff82111715610bc757610bc6610dd6565b5b8060405250919050565b600067ffffffffffffffff821115610bec57610beb610dd6565b5b601f19601f8301169050602081019050919050565b6000819050602082019050919050565b600081519050919050565b600081519050919050565b6000602082019050919050565b600082825260208201905092915050565b600081905092915050565b600082825260208201905092915050565b600082825260208201905092915050565b6000610c7d82610cfa565b9150610c8883610cfa565b9250827fffffffffffffffffffffffffffffffffffffffffffffffffffffffffffffffff03821115610cbd57610cbc610d78565b5b828201905092915050565b6000610cd382610cda565b9050919050565b600073ffffffffffffffffffffffffffffffffffffffff82169050919050565b6000819050919050565b82818337600083830152505050565b60005b83811015610d31578082015181840152602081019050610d16565b83811115610d40576000848401525b50505050565b60006002820490506001821680610d5e57607f821691505b60208210811415610d7257610d71610da7565b5b50919050565b7f4e487b7100000000000000000000000000000000000000000000000000000000600052601160045260246000fd5b7f4e487b7100000000000000000000000000000000000000000000000000000000600052602260045260246000fd5b7f4e487b7100000000000000000000000000000000000000000000000000000000600052604160045260246000fd5b6000601f19601f830116905091905056fe57652068617665207265636569766564206120746f74616c206f6620256420756e697321a26469706673582212204772629e9d71780c5d2e9ef3cfcdc56a1af78f37d3f27bd43492a2e722cf501464736f6c634300080000335375757575702c204920616d206120636f6e747261637420616e64204920616d2064756d6220617320662c206275742049206c696b6520726563656976696e6720756e6973",
  "linkReferences": {},
  "deployedLinkReferences": {}
}